:0300000002010DED
:0C010D00787FE4F6D8FD758111020154E2
:10019900FFFFC00FFFEFFFDFFFBFFE7FFEFF000184
:1001A900FEFFFEFFFEFFFEFFFEFFFEFFFAFFFCFF64
:1001B900FDFFFDFFFDFF800FBDEFBDEF800FBDEF20
:1001C900BDEF800FFDFFFDFFFDFBFDFBFC03FFFF06
:1001D900FFFFFFFF8003FEFFFEFFFEFFFEFFFEFFA6
:1001E900FEFFFEFFFEFFFEFFFEFF0001FFFFFFFF18
:1001F900BEBFCEDFEEFBFC0179DF95D7DC03F5DF6F
:10020900EDD7DC031DDFDDDFDDDBDC01DDFFDDFF3D
:04028800021000AAB6
:08025700C296D2967F077E00DB
:10025F00EF1FAA0670011E4A600BE4FDEDC39478F0
:05026F0050EE0D80F7C8
:010274002267
:080219003EF583E493FF7E0033
:040221008E0E8F0F9F
:10022500900000AF82E50FAE0EA807088005C33326
:10023500CE33CED8F930E704D2958002C295C29765
:10024500E4FFFE12025FD297A3E58264084583703E
:01025500D2D6
:010256002285
:040003008E0A8F0BC7
:10000700C293E4F50CF50DC3E50D9410E50C64807F
:1000170094805065850B80E50D25E0FFE50C33FEE8
:1000270074DA2FF5827401120219E50D25E0FFE558
:100037000C33FE74D92FF5827401120219E50D25D0
:10004700E0FFE50C33FE74FA2FF5827401120219F2
:10005700E50D25E0FFE50C33FE74F92FF5827401F9
:10006700120219120257050DE50D7002050C050B5A
:10007700E50B7093050A02000ED293C29474F02523
:100087000BF50B74FF350AF50AE4F50CF50DC3E51E
:100097000D9410E50C648094805068850B80E50D05
:1000A70025E0FFE50C33FE749A2FF58274011202E6
:1000B70019E50D25E0FFE50C33FE74992FF58274E1
:1000C70001120219E50D25E0FFE50C33FE74BA2F86
:1000D700F5827401120219E50D25E0FFE50C33FEE8
:1000E70074B92FF5827401120219120257050DE532
:1000F7000D7002050C7410250BF50BE4350AF50A93
:05010700020095D294F6
:01010C0022D0
:10027500D292E4F508F509AF09AE08120003209201
:03028500F180EF16
:10011900020275E493A3F8E493A34003F68001F285
:1001290008DFF48029E493A3F85407240CC8C333E7
:10013900C4540F4420C8834004F456800146F6DFB6
:10014900E4800B0102040810204080900288E47EBC
:10015900019360BCA3FF543F30E509541FFEE493AB
:10016900A360010ECF54C025E060A840B8E493A372
:10017900FAE493A3F8E493A3C8C582C8CAC583CA9D
:10018900F0A3C8C582C8CAC583CADFE9DEE780BE55
:01028C000071
:00000001FF
