:0300000002048077
:0C048000787FE4F6D8FD75811B0203BDF7
:10028F00FFFFC00FFFEFFFDFFFBFFE7FFEFF00018D
:10029F00FEFFFEFFFEFFFEFFFEFFFEFFFAFFFCFF6D
:1002AF00FDFFFDFFFDFF800FBDEFBDEF800FBDEF29
:1002BF00BDEF800FFDFFFDFFFDFBFDFBFC03FFFF0F
:1002CF00FFFFFFFF8003FEFFFEFFFEFFFEFFFEFFAF
:1002DF00FEFFFEFFFEFFFEFFFEFF0001FFFFFFFF21
:1002EF00BEBFCEDFEEFBFC0179DF95D7DC03F5DF78
:1002FF00EDD7DC031DDFDDDFDDDBDC01DDFFDDFF47
:0F043A00AF15AE1412045FC296D2967F077E00F4
:10044900EF1FAA0670011E4A600BE4FDEDC3947804
:0504590050EE0D80F7DC
:01045E00227B
:10036C00851380E51525E0FFE51433FE74902FF519
:0B037C008274023EF583E493FF7E00D4
:040387008E188F1924
:10038B00900000AF82E519AE18A807088005C333AB
:10039B00CE33CED8F930E704D2958002C295C297FE
:1003AB00E4FFFE120449D297A3E5826408458370EB
:0103BB00D26F
:0103BC00221E
:10045F008F828E83E5821582AE83700215834E6084
:10046F000FD295C2977F017E00120449D29780E484
:01047F00225A
:040003008E128F13B7
:10000700851216851317C3E513941FE51294004054
:100017000302010AC293E4F514F515D3E513940F0F
:10002700E51294005065851380E51525E0FFE5147A
:1000370033FE74D02FF582740212037FE51525E095
:10004700FFE51433FE74CF2FF582740212037FE5A8
:100057001525E0FFE51433FE74F02FF582740212C4
:10006700037FE51525E0FFE51433FE74EF2FF582D6
:10007700740212037F1204410515E5157002051479
:100087000513E5137095051202002274F02513F588
:100097001374FF3512F512D293C294E4F514F515D3
:1000A700D3E51394FFE5129400505512036CE51540
:1000B70025E0FFE51433FE748F2FF58274021203D7
:1000C7007FE51525E0FFE51433FE74B02FF5827444
:1000D7000212037FE51525E0FFE51433FE74AF2F09
:1000E700F582740212037F1204410515E5157002AB
:1000F700051474102513F513E43512F5120200A741
:10010700D29422C294E4F514F515D3E51394FFE5D0
:10011700129400505512036CE51525E0FFE51433E2
:10012700FE748F2FF582740212037FE51525E0FF19
:10013700E51433FE74B02FF582740212037FE515C0
:1001470025E0FFE51433FE74AF2FF5827402120326
:100157007F1204410515E515700205147410251367
:0C016700F513E43512F512020111D294D8
:010173002269
:0B048C00D294D2937F107E2702044917
:10030F00E4F510F511AF11AE101200037F327E002D
:10031F001204490511E51170020510C3941FE51071
:10032F006480948040DFE51115117002151075106F
:10033F0000751110D3E51194FFE51064809480507F
:10034F001BAF11AE101200037FF47E01120449742B
:0C035F00102511F511E43510F51080D8C0
:01036B00226F
:0403FF008E1A8F1BA8
:10040300900000AF82E51BAE1AA807088005C3332E
:10041300CE33CED8F930E704D2958002C295C29785
:10042300C296D2967FBC7E02120449D297A3E5827C
:060433006408458370CD52
:0104390022A0
:10017400E4F516F517F514F515C293E4F516F5171D
:10018400F512F513851780E51325E0FFE51233FE1C
:1001940074D02FF582740212037FE51325E0FFE586
:1001A4001233FE74CF2FF582740212037FE51325F8
:1001B400E0FFE51233FE74F02FF582740212037F20
:1001C400E51325E0FFE51233FE74EF2FF582740288
:1001D40012037F12043A0513E51370020512051782
:1001E400E51770020516D3940FE5166480948040D9
:1001F4009374F02517F51774FF3516F516D293C2CC
:1002040094E4F512F513D3E51794FFE5166480948E
:1002140080505F851780E51325E0FFE51212037611
:10022400E51325E0FFE51233FE748F2FF582740287
:1002340012037FE51325E0FFE51233FE74B02FF5BA
:1002440082740212037FE51325E0FFE51233FE7486
:10025400AF2FF582740212037F12043A0513E513DB
:100264007002051274102517F517E43516F51602F9
:10027400020AD2940515E51570020514D39420E5FD
:0A0284001464809480500302017D91
:01028E00224D
:1003BD00750E00750FFFC292D2922092127F0A7EA7
:1003CD00001204492092F13092FD12030F80E920B2
:1003DD0091127F0A7E001204492091DC3091FD12AA
:1003ED00017480D4E4F508F509AF09AE08120003D5
:0203FD0080C6B8
:00000001FF
